:020000040800F2
:10000000781A0020ED0100088F1700084516000837
:100010008D170008F10300088B2200080000000083
:100020000000000000000000000000009117000820
:10003000F3030008000000009B020008931700086B
:10004000070200080702000807020008070200086C
:10005000070200080702000807020008070200085C
:10006000070200080702000807020008070200084C
:10007000070200080702000807020008070200083C
:10008000070200080000000007020008070200083D
:10009000070200080702000807020008070200081C
:1000A000070200080702000807020008070200080C
:1000B00007020008070200080702000807020008FC
:1000C00007020008070200080702000807020008EC
:1000D00007020008070200080702000807020008DC
:1000E00007020008070200080702000807020008CC
:1000F00007020008070200080702000800000000CD
:1001000000000000070200080000000007020008CD
:100110000702000800000000391800080702000864
:10012000070200080702000807020008070200088B
:10013000070200080000000000000000070200089D
:10014000070200080702000800000000000000008D
:10015000000000000000000000000000000000009F
:10016000000000000000000000000000070200087E
:10017000070200080000000000000000000000006E
:10018000000000000702000800000000000000005E
:10019000000000000000000000000000000000005F
:1001A000000000000000000007020008070200082D
:1001B000070200080702000807020008000000000C
:1001C000000000000702000800000000000000001E
:1001D0000702000807020008DFF80CD000F0F6F86C
:1001E000004800470D280008781A0020064880477C
:1001F00006480047FEE7FEE7FEE7FEE7FEE7FEE70C
:10020000FEE7FEE7FEE7FEE71D180008D90100083B
:1002100072B6704762B67047EFF3108072B67047DF
:1002200080F310887047B0FA80F0704772B64EF6CF
:100230002250CEF2000040F2FF01C0F20001017036
:1002400029480068006880F3088840F22000C2F264
:10025000000040F22401C2F200010A680260106846
:1002600080F30988EFF3148040F0020080F31488D3
:10027000BFF36F8FBDE8F00F01BC0FBCBDE80050AD
:1002800006BC62B6084719484FF0805101607047BC
:1002900016484FF080510160704772B6EFF3098045
:1002A0001EF0100F08BF20ED108A40F804ED20E981
:1002B000F00F40F22005C2F200052E68306040F2D7
:1002C0002401C2F200010A682A601068B0E8F00F49
:1002D00050F804EB1EF0100F08BFB0EC108A80F34A
:1002E000098862B67047000008ED00E004ED00E008
:1002F0002DE9F05F0546002092469B46884606465B
:10030000814640241BE0284641464746224600F0ED
:100310004DF853465A46C01A914110D3114618461B
:10032000224600F034F82D1A67EB01084F462246AA
:100330000120002100F02BF817EB00094E41201E90
:10034000A4F10104DFDC484631462A464346BDE8B5
:10035000F09FD2B201E000F8012B491EFBD270479A
:100360000022F6E710B513460A4604461946FFF781
:10037000F0FF204610BD10B5044604E00B7800F8ED
:10038000013B03B1491C521EF8D2204610BD202A61
:1003900004DB203A00FA02F1002070479140C2F1DC
:1003A000200320FA03F3194390407047202A04DB0E
:1003B000203A21FA02F00021704721FA02F3D040DE
:1003C000C2F120029140084319467047064C074D80
:1003D00006E0E06840F0010394E807009847103415
:1003E000AC42F6D3FFF7FCFE3C3500085C35000854
:1003F000FEE77047704700002DE9F84FDFF890B135
:10040000002301274FF0030A4FF00F090BF1040EF0
:10041000B6E000BF07FA03F6324070D04C68022CF9
:1004200001D0122C10D1DC0800EB8408D8F8204051
:100430005D074FEAD56C09FA0CF5AC430D6905FA76
:100440000CF52543C8F82050D0F800805D0091F8E5
:1004500004C00AFA05F40CF0030C28EA04080CFAAC
:1004600005FC4CEA080CC0F800C0D1F804C0BCF18F
:10047000010F08D0BCF1020F05D0BCF1110F02D062
:10048000BCF1120F16D1D0F808C0D1F80C802CEABC
:10049000040C08FA05F848EA0C08C0F80880D0F8FF
:1004A00004C02CEA060C0E79C6F300169E4046EAFC
:1004B0000C064660C668A6438C68AC403443C460F2
:1004C0004C68E4005BD5334C256E45F0010525668C
:1004D000246E23F0030504F0010400942E4C2E1921
:1004E000B4689D074FEA157C09FA0CF5AC43B0F1EE
:1004F000904F05D0294DA84204D1012517E03EE0D8
:10050000002514E0264DA84201D102250FE0254D1B
:10051000A84201D103250AE0234DA84201D10425B8
:1005200005E0224DA84201D1052500E0062505FA87
:100530000CF52543B560DBF800405D464E689443FA
:10054000F60300D514432C60DEF8004075464E6873
:100550009443B60300D514432C600D4D08352C6828
:100560004E689443F60200D514432C60084D0C35B8
:100570002C684E689443B60200D514432C605B1C73
:100580000A6832FA03F47FF445AFBDE8F88F000043
:100590000004014000100240000001400004004837
:1005A00000080048000C00480010004800140048F3
:1005B00042690A4201D081627047816170470AB185
:1005C0008161704781627047014880687047000010
:1005D0000000002010B50024032000F077F8002070
:1005E00000F008F808B1012401E000F025F82046E9
:1005F00010BD000070B50E4E05460024706898B11D
:100600004FF47A71B1FBF0F00A490968B1FBF0F0E0
:1006100000F060FD40B9102D06D200222946501E80
:1006200000F034F8356000E00124204670BD000081
:10063000000000200C0000200B4808B5016E41F0BE
:1006400001010166016E01F001010091816D41F02F
:1006500080518165806D00F0805000900348816872
:1006600021F48041816008BD00100240007000400C
:10067000002809DB00F01F020121914040098000A1
:1006800000F1E020C0F8001170470000F0B40E4BFC
:100690001B680C46C3F30223C3F10705042D00D9E0
:1006A0000425191D072901D2002300E0DB1E0126C5
:1006B00006FA05F1491E214099409E40761E1640DB
:1006C0003143F0BC01F0F2BD0CED00E0064900F052
:1006D000070208684FF6FF03184040EA0220034A69
:1006E00010430860704700000CED00E00000FA05C0
:1006F0002B492C4B0A6832214A432B4940B1B0F5B3
:10070000007F086829D020F4C06040F480602CE0AD
:100710000868C0F34120022804D051F8800F20F46B
:10072000807022E0D1F8800020F48070C1F8800051
:10073000086820F4C06040F400700860B2FBF3F079
:10074000401C00E0401E4A69520501D50028F9D13D
:10075000486940050AD503207047C0F341200228AC
:1007600006D051F8800F40F4807008600020704778
:10077000D1F8800040F48070C1F88000086820F44F
:10078000C06040F400700860B2FBF3F0401C00E071
:10079000401E4A695205DBD50028F9D1D8E7000090
:1007A0000C00002040420F00007000402DE9F8438B
:1007B0000446006800269D4D00035ED5A86D002705
:1007C000C00008D4A86D40F08050A865A86D01272E
:1007D00000F080500090DFF85892D9F8001041F4F2
:1007E0008071C9F80010FFF7EFFE804606E000BFF9
:1007F000FFF7EAFEA0EB080002282BD8D9F800008A
:10080000C005F5D5D5F8900010F4407014D0216CD7
:10081000814211D0D5F89000D5F8901020F44070A6
:1008200041F48031C5F89010D5F8901021F4803152
:10083000C5F89010C5F89000C00711D0FFF7C4FEAE
:10084000804641F2883907E0FFF7BEFEA0EB0801C1
:10085000494501D903260BE0D5F890008007F3D570
:10086000D5F89000216C20F440700843C5F8900042
:100870001FB1A86D20F08050A8652078C00707D070
:10088000D5F88800616820F003000843C5F88800A7
:100890002078800707D5D5F88800A16820F00C00E3
:1008A0000843C5F888002078400707D5D5F88800A8
:1008B000E16820F030000843C5F888002078000780
:1008C00007D5D5F88800216920F0C0000843C5F895
:1008D00088002078800607D5D5F88800616920F463
:1008E00040600843C5F888002078400607D5D5F851
:1008F0008800A16920F440500843C5F8880020789A
:10090000000607D5D5F88800E16920F44040084387
:10091000C5F888002088C00507D5D5F88800216A69
:1009200020F440300843C5F888002088800507D5AA
:10093000D5F88800616A20F440200843C5F8880093
:10094000208840050FD5D5F88800A16A20F4401012
:100950000843C5F88800A06AB0F5801F03D1E86895
:1009600040F48010E860208800050FD5D5F8880095
:10097000E16A20F440000843C5F88800E06AB0F559
:10098000800F03D1E86840F48010E8602088C0043C
:100990000FD5D5F88800216B20F040700843C5F8CA
:1009A0008800206BB0F1807F03D1E86840F48010AC
:1009B000E86020884FF0006180040ED5D5F88800EB
:1009C000626B20F040601043C5F88800606B88427D
:1009D00003D1E86840F48010E860208840040ED518
:1009E000D5F88800A26B20F040601043C5F888005D
:1009F000A06B884203D1E86840F48010E86020884A
:100A000000040FD5D5F88800E16B20F04050084372
:100A1000C5F88800E06BB0F1805F03D1E86840F46E
:100A20008030E8603046BDE8F883000000100240E6
:100A3000007000402DE9F0470E4605004FF000071A
:100A400025D0DFF8AC81D8F8000000F00F00B042EC
:100A50000CD2D8F8001021F00F013143C8F8001073
:100A6000D8F8000000F00F00B04210D12968614CA6
:100A7000C80741F2883A5AD06868DFF87C910328A9
:100A800008D0022820682DD0400500282CDB01204A
:100A9000BDE8F08720688001F9D5E06800F0030226
:100AA000E068C0F30310401C032A19D0534A00BF6A
:100AB000B2FBF0F0E268C2F306225043E268C2F3F0
:100AC0004162521C5200B0FBF2F0484517D9A068B1
:100AD00010F0F00F0CD0880711D5A86840B10EE0D7
:100AE000474AE5E78003D0E700F0B6F8484506D965
:100AF000A06820F0F00040F08000A0608027A0688F
:100B0000696820F003000843A060FFF75DFD81469F
:100B100006E000BFFFF758FDA0EB090151453AD8A8
:100B2000A068696800F00C00B0EB810FF2D1286872
:100B3000810714D5400703D5A06840F4E060A060A9
:100B40002878000705D5A06820F4605040F4E060E4
:100B5000A060A068A96820F0F000084304E0802F9E
:100B600003D1A06820F0F000A060D8F80010404643
:100B700001F00F01B14216D9016821F00F01314394
:100B80000160FFF721FD074607E000BFFFF71CFDEE
:100B9000C11B514501D903207AE7D8F8000000F0C5
:100BA0000F00B042F2D12878400705D5A068E96867
:100BB00020F4E0600843A0602878000706D5A0680C
:100BC000296920F4605040EAC100A06000F044F8B8
:100BD000A1680C4AC1F30311515C01F01F01C84028
:100BE0000949086009480068BDE8F047FFF702BD01
:100BF000002002400010024000B4C4040024F400AD
:100C000000366E011C3500080C000020000000209A
:100C10000548064900688968054AC1F30221515C0C
:100C200001F01F01C84070470C0000200010024076
:100C30002C3500080548064900688968054AC1F353
:100C4000C221515C01F01F01C84070470C00002018
:100C5000001002402C350008184910B58868C0F310
:100C600081021748012A0BD08A68164BC2F3810211
:100C7000022A06D08A68C2F38102032A03D0002028
:100C800010BD184610BDCA6802F00304CA68C2F35A
:100C90000312521C032C02D0B0FBF2F001E0B3FBB4
:100CA000F2F0CA68C968C2F306225043C1F3416139
:100CB000491C4900B0FBF1F010BD000000100240DB
:100CC0000024F40000366E012DE9F84304007AD0C8
:100CD0002078FA4DC00747D0A868E96800F00C00FA
:100CE00001F003010C2802D0082817D001E00329E5
:100CF00014D06068B0F5803F17D0B0F5A02F2868F9
:100D000017D020F480302860286820F480202860E4
:100D10006068E0B1FFF758FC064614E028688003DD
:100D200022D560680028D2D01EE0286840F48030C8
:100D3000EDE740F480202860F7E700BFFFF744FCB0
:100D4000801B642870D828688003F7D50CE0FFF773
:100D50003BFC064605E000BFFFF736FC801B64281D
:100D6000F0D828688003F7D4207880074CD5A8688D
:100D7000E96800F00C0001F003010C2802D00428FF
:100D80000DD001E002290AD0E068002828682BD0A5
:100D900040F480702860FFF717FC064619E02868C9
:100DA000400502D5E068002891D06868217C20F0D9
:100DB000FE4040EA01606860C1480068FFF71AFC25
:100DC000002800D120E076E1FFF7FEFB801B02281F
:100DD000B8D828684005F7D56868217C20F0FE4027
:100DE00040EA016068600FE020F480702860FFF73F
:100DF000EBFB064605E000BFFFF7E6FB801B022881
:100E0000A0D828684005F7D42078000729D5606964
:100E10000028D5F8940013D040F00100C5F89400E4
:100E2000FFF7D2FB064606E090E000BFFFF7CCFBE1
:100E3000801B022886D8D5F894008007F6D510E0EC
:100E400020F00100C5F89400FFF7BEFB064604E061
:100E5000FFF7BAFB801B022878D8D5F894008007EA
:100E6000F6D42078400761D5A86D0026C00008D4CC
:100E7000A86D40F08050A865A86D012600F0805054
:100E8000009090480168C90511D40168804641F47A
:100E900080710160FFF798FB074604E0FFF794FBC1
:100EA000C01B022852D8D8F80000C005F6D5A068AB
:100EB000012815D00528D5F8900016D020F00100A3
:100EC000C5F89000D5F8900020F00400C5F8900017
:100ED000A06841F28838B8B1FFF776FB07460EE00C
:100EE000D5F8900040F00100F0E740F00400C5F8AC
:100EF0009000F5E7FFF768FBC11B414526D8D5F800
:100F000090008007F6D50CE0FFF75EFB074604E093
:100F1000FFF75AFBC11B414518D8D5F89000800750
:100F2000F6D41EB1A86D20F08050A8652078800608
:100F300029D5A0690028D5F8980013D040F0010009
:100F4000C5F89800FFF740FB064606E077E000BFD3
:100F5000FFF73AFB801B022877D8D5F89800800766
:100F6000F6D510E020F00100C5F89800FFF72CFB43
:100F7000064604E0FFF728FB801B022865D8D5F859
:100F800098008007F6D4E069F0B3A968C1F3810145
:100F9000032961D00228286820F0807028600BD0D7
:100FA000E86820F00300E860E86847490840E86026
:100FB000FFF70AFB04464BE0FFF706FB064604E09A
:100FC000FFF702FB801B02283FD828688001F7D476
:100FD000F4E908016FF00F0202EB01110843218AC6
:100FE0005204490802EB4151A26841EA0221084338
:100FF000217D4FF07E42490802EB41610843217B8D
:1010000040EAC160E96800E062E0304A114008430C
:10101000E860286840F080702860E86840F08070E0
:10102000E860FFF7D1FA044605E000BFFFF7CCFA0D
:10103000001B022809D828688001F7D548E004E0A1
:10104000FFF7C2FA001B022802D90320BDE8F8838B
:1010500028688001F4D43BE00128F7D0E868226AD0
:1010600000F00301914226D1616A00F0F00209010B
:10107000103991421FD1A26A00F4FE41B1EB022F58
:1010800019D194F82C2000F07841B1EBC26F12D145
:10109000218E00F4C00249084905A1F500119142D2
:1010A00009D194F8341000F0C06049084906A1F154
:1010B000007181420CD00120C8E7000000100240FE
:1010C0000000002000700040FFFFEEFE0C809F013A
:1010D0000020BBE710B5401EB0F1807F01D3012096
:1010E00010BD4FF0E02460610F21601701F0DEF8C1
:1010F0000020A06107202061002010BD70477047CC
:10110000704770477047704770B590F83C20012ACF
:1011100024D0012580F83C50022280F83D2003684D
:101120005A689E680E4CA34202D00E4CA34203D1D3
:1011300022F470044A6822430B4C22400C688968F0
:10114000144326F0800211435C600268916080F8CD
:101150003D50002180F83C10084670BD022070BD53
:10116000002C0140003401408FFFFFFD704710B597
:10117000040003D094F83D0010B107E0012010BD39
:10118000002084F83C00204600F00CF8022084F88F
:101190003D00211D206800F055FB012084F83D0032
:1011A000002010BD08B500680B49884212D10B48D9
:1011B000816D41F010018165806D002200F010000A
:1011C000009011463620FFF761FABDE8084036204E
:1011D000FFF74EBA08BD00000010004000100240AA
:1011E000704770B50446006801694FF00005C943B7
:1011F000890715D4C168C943890711D4E91E016163
:1012000001202077206880698007204602D0FFF700
:10121000E7FF04E000F0E3F8204600F0E1F825776E
:1012200020680169C943490717D4C168C943490700
:1012300013D46FF0040101610220207720688069D7
:1012400010F4407F204602D0FFF7CAFF04E000F010
:10125000C6F8204600F0C4F8257720680169C94324
:10126000090716D4C168C943090712D46FF00801F1
:101270000161042020772068C0698007204602D0E1
:10128000FFF7AEFF04E000F0AAF8204600F0A8F84F
:10129000257720680169C943C90617D4C168C943C5
:1012A000C90613D46FF0100101610820207720686F
:1012B000C06910F4407F204602D0FFF791FF04E0A0
:1012C00000F08DF8204600F08BF825772068016942
:1012D000C943C90708D1C168C943C90704D1891ED8
:1012E0000161204600F07DF820680169C9430906C4
:1012F00009D4C168C943090605D46FF080010161B2
:101300002046FFF7FCFE20680169C943C90509D4DE
:10131000C168C943090605D46FF480710161204694
:10132000FFF7ECFE20680169C943490609D4C1688A
:10133000C943490605D46FF040010161204600F021
:1013400051F820680169C943890609D4C168C943B5
:10135000890605D46FF0200101612046FFF7D0FE19
:1013600020680169C943C90209D4C168C943C902D7
:1013700005D46FF4801101612046FFF7C3FE206899
:101380000169C943890209D4C168C943890205D4E6
:101390006FF4001101612046FFF7B3FE2068016978
:1013A000C943490209D4C168C943490205D46FF44D
:1013B000800101612046FFF7A6FE20680169C9434C
:1013C00009020BD4C168C943090207D46FF40001B4
:1013D00001612046BDE87040FFF7C8BE70BD704790
:1013E00070477047704790F87C10012918D0012190
:1013F00080F87C102421C0F8801050F8601B0A6827
:101400000B6823F001030B6022F0005100224260C0
:1014100050F8603C19602021016202771046704745
:101420000220704770B5044690F87C0001281DD05A
:10143000012084F87C002420C4F88000206805681E
:10144000026822F0010202602068826822F0606275
:101450000A438260204600F04DFA20680560202093
:10146000C4F88000002084F87C0070BD022070BDAC
:1014700070B5044690F87C0001281DD0012084F846
:101480007C002420C4F8800020680568026822F0EF
:10149000010202602068826822F060420A43826092
:1014A000204600F027FA206805602020C4F880005C
:1014B000002084F87C0070BD022070BD10B50400CF
:1014C00003D0D4F8800010B107E0012010BD002047
:1014D00084F87C00204600F027F82420C4F880001F
:1014E0002068016821F001010160204600F0C8FA7F
:1014F0000128EBD0A06A10B1204600F02DFA206838
:10150000416821F4904141602068816821F02A01FE
:1015100081602068016841F0010101602046BDE85A
:10152000104000F07DBA000010B586B004461421CA
:101530006846FEF715FF1249206888421DD1114800
:10154000C16D41F00101C165C16D01F0010105915D
:10155000C16C41F00101C164C06C022100F00100C6
:1015600005900C20CDE9000100210291CDE9031086
:1015700069464FF09040FEF73FFF06B010BD0000F7
:1015800000800040001002402DE9F8430446D0F8E6
:1015900080001F4616460D46202851D1DDB1D6B138
:1015A00094F87C0001284BD0012084F87C004FF097
:1015B0000008C4F888802120C4F880001834FFF7A0
:1015C00003F8A6878146E68754F8100C183CB0F55E
:1015D000805F03D004E00120BDE8F883206910B1EA
:1015E0002E46002510E000260EE08021204600F067
:1015F0001AFEB8B9C6B116F8010B21688862B4F8B2
:101600005600401EA4F85600B4F856004B464FF062
:10161000000200970028E8D14FF04001204600F07A
:1016200002FE30B10320D7E735F8020BC0F3080003
:10163000E3E72020C4F8800084F87C800020CBE71A
:101640000220C9E7FEE7000030B587B014216846E4
:10165000FEF786FE1F48C16C41F00401C164C16CF5
:1016600001F004010591C16C41F02001C164C16C1D
:1016700001F020010591C16C41F00101C164C16C10
:1016800001F001010591C16C41F00201C164C06C1F
:101690004FF0904500F002000590002220212846DE
:1016A000FEF78DFF4FF4005000900B480024CDE969
:1016B000010469460948FEF79FFE202000900120A2
:1016C000CDE90104694628460394FEF795FE07B06C
:1016D00030BD00000010024000001110000800485A
:1016E000174810B5154901604FF4E1314160002100
:1016F00081600C22C160C0E90412816101628162D3
:10170000FFF7DCFE08B1FEF775FE00210C48FFF77D
:10171000AFFE08B1FEF76EFE00210948FFF782FE1A
:1017200008B1FEF767FE0648FFF75DFE002803D00C
:10173000BDE81040FEF75EBE10BD00000080004016
:10174000500500203EB500240F48009401940D4937
:10175000029401606321C0E901144FF47A7184613D
:10176000C160FFF704FD08B1FEF744FE009469462E
:1017700005480294FFF7C8FC002801D0FEF73AFEA6
:101780003EBD000000100040DC050020FEE7704771
:10179000704710B501F0C6FC002807D001F084FCAA
:1017A00001F0A6FEBDE8104001F08EBC10BD10B5E2
:1017B000A4B038216846FEF7D3FD14211FA8FEF718
:1017C000CFFD44210EA8FEF7CBFD4FF40070FEF7CD
:1017D0008FFF012000900004019002200324CDE936
:1017E00007041921CDE90A100C900D900994684660
:1017F000FFF76AFA0F20CDE91F04002421942294F8
:1018000004211FA82394FFF715F9202013940E90AC
:101810000EA8FEF7CBFF24B010BD000005480168FC
:1018200041F47001016003494FF0006080390860A5
:101830007047000088ED00E00148FFF7D2BC0000CF
:10184000DC0500202DE9F0430268234B234D244E94
:10185000244C4FF08049984207D0484505D0A84213
:1018600003D0B04201D0A04203D122F070074A68F1
:101870003A431D4FDFF874C0DFF8748098420DD0F2
:1018800048450BD0A84209D0B04207D0A04205D0AD
:10189000B84203D0604501D0404503D122F44075E1
:1018A000CA682A434D6922F080022A4302608A688E
:1018B000C2620A688262984207D0A04205D0B8424C
:1018C00003D0604501D0404501D109690163012180
:1018D0004161BDE8F0830000002C0140000400409D
:1018E0000008004000340140004001400044014035
:1018F000004801403FB514A1D1E90021CDE9002104
:1019000013A2D2E90012CDE90212416EB9B1026808
:1019100091689268C1F34261520F1DF80240E500E0
:1019200002ACA25CB5FBF2F2A0F86A201DF801201F
:10193000615CD200B2FBF1F1A0F868103FBD01215B
:10194000A0F86A10F8E70000010101030701000098
:10195000080402040801010190F82810C90706D004
:1019600001684A68C36A22F400321A434A6090F858
:101970002810890706D501684A68036B22F4803273
:101980001A434A6090F82810490706D501684A684A
:10199000436B22F480221A434A6090F8281009070A
:1019A00006D501684A68836B22F400421A434A60F4
:1019B00090F82810C90606D501688A68C36B22F41E
:1019C00080521A438A6090F82810890606D501686B
:1019D0008A68036C22F400521A438A6090F8281037
:1019E000490611D501684A68436C22F480121A43F3
:1019F0004A60416CB1F5801F06D101684A68836C6A
:101A000022F4C0021A434A6090F82810090606D54D
:101A100001684A68C06C22F4002202434A607047A1
:101A2000F8B500260446C0F88860FEF7CDFD0546EF
:101A3000206800686FF07E47000708D52B4600221B
:101A40004FF400112046009700F0EDFB60B92068CC
:101A5000006840070AD52B4600224FF4800120463B
:101A6000009700F0E0FB08B10320F8BD2020C4F887
:101A70008000C4F8840084F87C600020F8BD000079
:101A80002DE9F05F0446016880682369E569184321
:101A9000636900272B431843636EFA4A03430868BF
:101AA000F94D28401843086020684168E36821F434
:101AB0004051194341602168A069914201D0236AD5
:101AC00018438B68F14D2B4003438B602068C16A3B
:101AD000636A21F00F011943C162ED4B2068ED49A3
:101AE00098420DD1D1F8881011F0030106D00129D8
:101AF0005AD0022956D003293FD157E001253DE0B5
:101B0000E54B98420BD1D1F8881011F00C0147D069
:101B1000042949D0082945D00C292ED146E0DF4BB5
:101B200098420BD1D1F8881011F0300138D010292B
:101B30003AD0202936D030291FD137E0D84B9842EF
:101B40000BD1D1F8881011F0C00129D040292BD039
:101B5000802927D0C02910D128E090420DD1D1F89A
:101B6000881011F440611BD0B1F5806F1CD0B1F525
:101B7000006F17D0B1F5406F18D01025DFF824A3FF
:101B80004FF480764FF000094FF4004B90426ED135
:101B900075B1022D29D0042D59D0082D68D176E0D9
:101BA0000025EBE70225E9E70425E7E70825E5E757
:101BB000FFF72EF84DE0012851D0022851D003281C
:101BC00051D0042851D0052853D0062853D00728D7
:101BD00053D0082853D0092853D00A2853D00B28B3
:101BE00053D03AE0B1FBF0F06CE0606AA8B1012894
:101BF00017D0022817D0032817D0042817D005289B
:101C000017D0062817D0072817D0082817D009287A
:101C100017D00A2817D00B2817D00120BAFBF0F0F4
:101C200050E00220FAE70420F8E70620F6E7082053
:101C3000F4E70A20F2E70C20F0E71020EEE720207E
:101C4000ECE74020EAE78020E8E73046E6E7FFF7E8
:101C500003F80146606A0028ADD10120C2E70220E6
:101C6000C0E70420BEE70620BCE70820BAE761E130
:101C70004AE00A20B6E70C20B4E71020B2E72020A3
:101C8000B0E74020AEE78020ACE73046AAE7606AC4
:101C9000A8B1012822D0022822D0032822D004286B
:101CA00022D0052822D0062822D0072822D00828B2
:101CB00022D0092822D00A2822D00B2822D00120A5
:101CC000BBFBF0F0002820D06168884601EB4101A1
:101CD000814219D8B0EB083F16D817E00220EFE791
:101CE0000420EDE70620EBE70820E9E70A20E7E714
:101CF0000C20E5E71020E3E72020E1E74020DFE7C4
:101D00008020DDE73046DBE7012739E27DB3022D95
:101D100061D0042D7DD0082DF6D1606AA8B10128CC
:101D200078D0022877D0032876D0042875D00528EB
:101D300074D0062873D0072872D0082871D00928DB
:101D400070D00A286FD00B2800D0012632464D46AD
:101D5000002358460021FEF7CBFA090241EA106140
:101D600002024FEA580010186941424670E0FFE74E
:101D7000FEF74EFF0146606AA8B1012817D002287D
:101D800017D0032817D0042817D0052817D0062805
:101D900017D0072817D0082817D0092817D00A28E5
:101DA00017D00B2800D0012632464D468CE0022683
:101DB000FAE70426F8E70626F6E70826F4E70A26F7
:101DC000F2E70C26F0E71026EEE72026ECE74026A7
:101DD000EAE78026E8E7606AA8B1012824D0022853
:101DE00024D0032824D0042824D0052824D0062871
:101DF00024D0072824D0082824D0092824D00A2851
:101E000024D00B2800D0012632464D4600235046F0
:101E1000A0E726E07AE07BE07CE07DE07EE07FE00A
:101E200080E081E082E083E00226EDE70426EBE734
:101E30000626E9E70826E7E70A26E5E70C26E3E7B2
:101E40001026E1E72026DFE74026DDE78026DBE7F6
:101E50000023FEF74DFA144AA0F54071914271D962
:101E600052E7FEF7F9FE0146606A50B3012839D007
:101E7000022839D0032839D0042839D0052839D090
:101E8000062813E000800040F369FFCFFFF4FF1144
:101E9000003801400010024000440040004800406B
:101EA000004C00400024F400FFFC0F0024D0072861
:101EB00024D0082824D0092824D00A2824D00B288C
:101EC00000D001264D463246002308461946FEF74B
:101ED0000FFA0902626841EA1061030250081818FB
:101EE0006941B5E70226EDE70426EBE70626E9E7B8
:101EF0000826E7E70A26E5E70C26E3E71026E1E7F0
:101F00002026DFE74026DDE78026DBE702261DE707
:101F100004261BE7062619E7082617E70A2615E711
:101F20000C2613E7102611E720260FE740260DE7C1
:101F300080260BE7E0694FF6EF78584570D1092D00
:101F40008ED200E01AE1DFE805F006093C058005C5
:101F500005058300D8E6FEF75BFE01E0FEF76AFEAA
:101F60000146606AA8B1012815D0022815D00328BF
:101F700015D0042815D0052815D0062815D0072817
:101F800015D0082815D0092815D00A2815D00B28F7
:101F900014D0012612E0022610E004260EE00626E8
:101FA0000CE008260AE00A2608E00C2606E01026C7
:101FB00004E0202602E0402600E08026B1FBF6F097
:101FC0001AE0606AA8B101282BD002282BD0032880
:101FD0002BD004282BD005282BD006282BD007285F
:101FE0002BD008282BD009282BD00A282BD00B283F
:101FF00000D00126BAFBF6F04100606801EB500109
:10200000B1FBF0F080B2A0F110014145A2D84FF62B
:10201000F0710140C0F3420001432068C160AFE0AD
:1020200046E00226E6E70426E4E70626E2E708267D
:10203000E0E70A26DEE70C26DCE71026DAE72026B2
:10204000D8E74026D6E78026D4E7FEF705FE87E7E7
:10205000606AA8B1012817D0022817D0032817D02A
:10206000042817D0052817D0062817D0072817D01E
:10207000082817D0092817D00A2817D00B2800D015
:102080000126BBFBF6F0B7E70226FAE70426F8E7DD
:102090000626F6E70826F4E70A26F2E70C26F0E71C
:1020A0001026EEE72026ECE74026EAE78026E8E760
:1020B000092DBFF4D5AEDFE805F006093C05830520
:1020C0000505860020E6FEF7A3FD01E0FEF7B2FD60
:1020D0000146606AA8B1012815D0022815D003284E
:1020E00015D0042815D0052815D0062815D00728A6
:1020F00015D0082815D0092815D00A2815D00B2886
:1021000014D0012612E0022610E004260EE0062676
:102110000CE008260AE00A2608E00C2606E0102655
:1021200004E0202602E0402600E08026B1FBF6F124
:102130001AE0606AA8B101282ED002282ED0032808
:102140002ED004282ED005282ED006282ED00728E1
:102150002ED008282ED009282ED00A282ED00B28C1
:1021600000D00126BAFBF6F1606801EB5001B1FB2B
:10217000F0F080B2A0F110014145A3D82168C860F9
:102180000120A4F86A0024F8680F3846C4F80490C7
:10219000C4F80890BDE8F09F0226E3E70426E1E7D3
:1021A0000626DFE70826DDE70A26DBE70C26D9E767
:1021B0001026D7E72026D5E74026D3E78026D1E7AB
:1021C000FEF74AFD84E7606AA8B1012817D002280B
:1021D00017D0032817D0042817D0052817D00628B1
:1021E00017D0072817D0082817D0092817D00A2891
:1021F00017D00B2800D00126BBFBF6F1B4E702266E
:10220000FAE70426F8E70626F6E70826F4E70A26A2
:10221000F2E70C26F0E71026EEE72026ECE7402652
:10222000EAE78026E8E72DE9F041984617460E4692
:102230000446069D08E0681C06D0FEF7C5F9A0EB31
:102240000800A8420BD855B12068C06936EA0000E2
:1022500019D00020B842EED00020BDE8F0812068FF
:10226000016821F4D07101602068816821F00101CA
:1022700081602020C4F88000C4F88400002084F825
:102280007C000320E9E70120E4E7FEE70FB4054BFB
:1022900010B503A9044A029800F03EF810BC5DF89E
:1022A00014FB000001270008580000200907090E50
:1022B000002804DB00F1E02080F80014704700F0F3
:1022C0000F0000F1E02080F8141D70470907090E87
:1022D000002804DB00F1E02080F80014704700F0D3
:1022E0000F0000F1E02080F8141D704710B500F0D9
:1022F000BDFEC0F11F0010BD02E008C8121F08C1DA
:10230000002AFAD170477047002001E001C1121F76
:10231000002AFBD1704700002DE9FF4F8DB09B468E
:102320000F460446002606E025280BD05A460F9992
:102330009047641C761C20780028F5D111B03046F7
:10234000BDE8F08F0025A8460122984900E005432A
:1023500014F8013F203B02FA03F00842F7D120783D
:102360002E2817D114F8010F45F004052A280ED0A5
:102370006FF02F022078A0F1300109290AD808EB6C
:10238000880102EB410100EB0108641CF2E757F8F9
:10239000048B641C20786C280DD004DC4C2812D0EF
:1023A0006A2811D104E074280DD07A280CD10AE0F3
:1023B00045F4001507E0617845F48015814202D1AB
:1023C000641C05F58015641C2278692A45D008DC58
:1023D000002AB3D0582A69D0632A10D0642A08D1C1
:1023E0003BE0702A67D0732A13D0752A5CD0782A14
:1023F0005CD010465A460F999047761CD3E017F8E8
:10240000040B8DF8000000208DF80100E946012042
:1024100003E057F8049B4FF0FF3069074FF00005C9
:1024200001D40AE06D1C45450DDA8542FADB19F846
:1024300005100029F6D106E06D1C8542FCDB19F879
:1024400005100029F8D12E4404E019F8010B5A4672
:102450000F9990476D1EF8D2A5E00A200021CDE922
:102460000801C5F3025002280DD001CFC117031E89
:1024700071F100030DDA4FF0000CD0EB0C006CEBA7
:1024800001012D2308E0FF1D27F00707F7E80201EF
:10249000EDE72B0504D52B238DF8283001233BE0F5
:1024A000EB0739D02023F7E70A2000E010200021B5
:1024B000CDE9080107E01020002145F00405CDE931
:1024C00008014FF00808C5F3025002280FD001CFD1
:1024D00000214FF0000A2B071FD5702A0DD0DDE92F
:1024E00008C38CF0100C5CEA030C0CD015E0FF1D47
:1024F00027F00707F7E80201EBE740228DF82820D4
:102500004FF0010A0BE050EA010306D030238DF8AA
:1025100028308DF8292002239A46582A04D024A274
:102520000DF120090B9209E026A2F9E7DDE9082365
:10253000FDF7DEFE0B9B9B5C09F8013D50EA0102B2
:10254000F4D1ADEB090020300890680701D44FF0BA
:1025500001080899884502DDA8EB010000E0002091
:102560008046002506E00AA85A46405D0F9990472C
:102570006D1C761C5545F6DB04E030205A460F9959
:102580009047761CB8F10001A8F10108F5DC05E0E0
:1025900019F8010B5A460F999047761C0899481E66
:1025A00008900029F4DC641CC5E60000092801003D
:1025B00030313233343536373839616263646566B9
:1025C000000000003031323334353637383941427B
:1025D00043444546000000007CB50446406801AA1B
:1025E00020F00300694600F053F9DDE900130D48BF
:1025F00000EBC11202EB830500F1100655F8842FA1
:10260000C4E90226D4602C600122046A02FA01F5B2
:102610002C43046200EB81009A40416A11434162FD
:102620007CBD0000F009002010B5044600F002F85F
:10263000046010BD00F10801406820F00300001F95
:1026400008447047FDF71FBE074810B5D0E90023C6
:10265000064800210068FDF74BFE05490860BDE80B
:10266000104000F00BB80000280000200C000020F3
:1026700030000020FDF70CBEFDF7D8FD10B5044674
:10268000002000F005FA2046BDE8104000F0EFB948
:1026900010B5029C234423F007034FF0807443F8E5
:1026A000044C43E903204FF0123043F8100C4FF074
:1026B000033043F8140C4FF0023043F8180C42106A
:1026C00043F81C2D181F40F820196FF00201C1615A
:1026D0004FF011318161110141614FF00931016108
:1026E000D100C1604FF0073181604FF00631416089
:1026F0004FF0053140F804199100016010BD000051
:1027000013B54FF6FF73012269460248FEF73CFFFE
:1027100000981CBD50050020FEE700001FB5074AC9
:10272000074900231268096809208DE80F00054A4F
:1027300005A1074800F0ACFD04B010BD3835000815
:10274000343500081927000869646C650000000032
:10275000780600200349884201D1012070470020FB
:10276000704700007806002002480078002800D05A
:10277000012070471000002002480078002800D097
:10278000012070471100002003490968884201D1E7
:102790000120704700207047200000200F4810B52E
:1027A0000078012819D10E480078002815D10D486D
:1027B0000078002811D100F05DFC044600F0B4F967
:1027C0000949086009490968884201D0FFF73AFFC2
:1027D0002046BDE8104000F04BBC10BD12000020A8
:1027E0001000002011000020240000202000002004
:1027F0004FF090444FF47A7520212046FDF7D8FE23
:102800002846002100F0B0FDF6E700001FB5FDF7F7
:10281000E1FEFEF7CCFF00F02FFCFEF715FFFEF700
:102820005FFFFEF78FFF104804250DF1040C1426FE
:102830004FF4007400958CE8510000230B4A0CA162
:10284000F03800F025FD0D480DF1040C00958CE8E2
:10285000510000230A4A0BA1A0F51E7000F018FDDC
:1028600000F0B2FCFEE7000050010020F127000854
:102870006C65645F7461736B00000000500300209E
:10288000B12C000873686F775F7461736B00000090
:1028900070B515460E460446802805D2E117002083
:1028A00004EB9171891006E0FFF720FD411F0C41F8
:1028B00084F02001801F3060296070BD70B5114A1E
:1028C00000231846C2F8003002EB8001401C4B6028
:1028D0000328F9DB0B4C10349461C2E90743002054
:1028E00002EB800102EBC0154B62002105EB810673
:1028F000491CC6F884402029F8DB401C1828EFDB6F
:1029000070BD0000F009002070B50C460546FFF7C9
:10291000D5FF21462846BDE8704000F077BC000096
:10292000084A10B50021136808E000BF02EB8104DB
:102930006468844201D1012010BD491C8B42F5DC42
:10294000002010BDF009002070B50446C568D4E928
:1029500005100A26486001600020E060207295F8AA
:1029600058100A2905D0284600F04CFD85F858601B
:1029700070BD95F82100217C8842F9D0284600F0EE
:1029800041FD267470BD10B50446FFF7DDFF2046FB
:10299000BDE81040042100F058B80168814204D01D
:1029A000483902D091F8210070470A20704710B5CD
:1029B0000A68483A02F148038B4207D090F8213068
:1029C00092F82140A34201D3926CF2E752F84C4FA7
:1029D00000F1480342F80439C3E900242360C165CB
:1029E00010F8201F41F00201017010BDD0E9121251
:1029F0004A601160C16DFFF7DABFD0E912124A6078
:102A000011600021C16510F8201F21F00201017042
:102A1000704710B5044690F82000800704D584F86C
:102A200060102046FFF7E9FF94F82000C00702D0AD
:102A3000204600F0B9F994F82000400704D420465D
:102A4000BDE8104000F02AB810BD70B5054600681A
:102A50000E4650F8484900F14801483CA94205D0CB
:102A60003146FFF7D6FF2046A46CF4E770BD10B5E1
:102A7000401EB0F1807F0AD24FF0E02460610F2148
:102A80006017FFF723FC0020A0610720206110BD24
:102A900001464FF0FF30FFF719BC0000054A90F8DF
:102AA0002110126892F82120914201D100F01AB849
:102AB00000F002B82000002070B5044690F8210014
:102AC000074901EBC0052968A94201D100F070F85F
:102AD000286848344460C4E900052C6070BD0000DB
:102AE0001C06002070B5044690F82100074901EB50
:102AF000C0052968A94201D100F05AF84834686835
:102B00006C60C4E90050046070BD00001C06002029
:102B1000044901EBC0010868884201D100207047D8
:102B2000483870471C060020034890F8541050F8AD
:102B300031004838704700001C0600200B480A216D
:102B400080F854105FF0000100EBC102491C1260D4
:102B5000C9B252600A29F7D300210A4600EB81036B
:102B6000491C1A6511F0FF01F8D070471C060020BF
:102B7000054901EBC00001680968814201D10120CB
:102B800070470020704700001C060020074901EB39
:102B9000C0010868884208D0D0E9002353601A6059
:102BA0004A684860C0E90012106070471C060020A7
:102BB00030B50A49420901EB820200F01F04C4F15A
:102BC0001F050124136DAC402343136591F8542075
:102BD000824201D981F8540030BD00001C0600205B
:102BE00070B590F82110C26C806C144C04EBC103DA
:102BF00042601060186898420BD1480904EB8000CD
:102C000001F01F03C3F11F050123026DAB409A437E
:102C1000026594F8540088420FD1084800255030CE
:102C200002E02035EDB2001D01680029F9D0084608
:102C300000F01CFA284484F8540070BD1C060020E3
:102C400070B5064600F016FA05463046FFF760FFFD
:102C500004000ED0FFF77EFD58B93046FFF788FF1D
:102C600038B9FFF789FD20B9A06E38B1401EA066C3
:102C700004D02846BDE8704000F0FAB90A48006860
:102C800090F82100FFF782FF3046FFF741FF416EC9
:102C900009B9064909688166284600F0E9F9BDE8E6
:102CA0007040FFF77BBD00002000002044000020A2
:102CB0004FF47A7403A0FFF7E9FA2046002100F0F0
:102CC00053FBF7E7746869732069732074656E635A
:102CD000656E746F7320746F2072756E202E200DD8
:102CE0000A00000070B50446FFF734FD10B140F251
:102CF0006D7070BD00F0BEF90646206D04F1500104
:102D000088420BD050F8145904E000BFFFF73BFE97
:102D100028466D69011B143D3C29F7D194F8200029
:102D200010B92046FFF75CFF94F82000C00702D0DE
:102D3000204600F039F894F82000800702D520469C
:102D4000FFF75BFED4E90B0141600860204600F00C
:102D50000DF8082084F82000304600F089F9FFF7CC
:102D60001DFD002070BD002000F02EBB00F12C01E5
:102D7000C162016314310164416408318164C1643A
:102D80000831016541650A2100F8581F00210172D0
:102D90004160704710B5044600F040F814F8200F69
:102DA00040F00100207010BD2DE9F041044600F014
:102DB00061F9804604F1400000F020FAF0B9216C7E
:102DC000B1F140001AD0144A914217D0D4E90E272D
:102DD0006FF001014D10D2EB0106D0E90E3165EB29
:102DE0000705F61A8D4104D39A187941C0E90E21DE
:102DF00004E06FF001014A10C0E90E12D4E910019D
:102E0000203441600860404600F032F9207820F01C
:102E100001002070BDE8F0813C0000202DE9F04762
:102E200000251746984606462C4600F023F9214A0D
:102E3000C6E90E78824641469146106819E000BF07
:102E4000D0E90E325B196241B7EB030C71EB020C57
:102E500014D387EA030C81EA02085CEA080C05D166
:102E600096F821C090F82180C44507D3006C1D4618
:102E70001446403800F140024A45E1D17B1B61EB2A
:102E80000401C6E90E3100F140024A4506D0D0E9FE
:102E90000E54EB1A64EB0104C0E90E34403650685E
:102EA0005660C6E9002006605046BDE8F04700F0D5
:102EB000DFB800003C0000202DE9F04106460C463A
:102EC00000F0D8F819490746194DD1E900209219A8
:102ED0006041C1E900202868A84221D050E90221C0
:102EE0004038B31A74EB010306D30021C0E90E1178
:102EF000286850F840490EE0921B61EB0401C0E9DC
:102F00000E210DE0D0E90E12114309D10221FFF785
:102F100080FD2046246C00F14001403CA942F1D1E3
:102F20003846BDE8F04100F0A3B8000018000020CA
:102F30003C000020002070472DE9F041044600F0DD
:102F400099F816490346D4E90605D1E9002182180B
:102F50004D411348C4E90625816806E0D1E90667BA
:102F6000961B75EB070604D3C9680C390E1A361D7B
:102F7000F4D151F8105F04F10C0241F80429C2E9C0
:102F800000152A608168914203D1D4E90612C0E994
:102F90000012BDE8F041184600F06AB818000020A1
:102FA0004800002070B5044600F064F80E4905465C
:102FB000D4E903038A6843600C3A1860A24209D13D
:102FC00054F80C0FA0420AD00C3808D0D0E90620E3
:102FD000C1E900202846BDE8704000F049B84FF034
:102FE000FF30C1E90000F5E7480000202DE9F0417D
:102FF0001C4E1D4FD6E90021D7E900309A1A8841AE
:103000002DD300F097F8B4684FF0030854F80C592A
:1030100015E000BFD4E90621D7E900309A1A8841AB
:1030200011D32046FFF7BEFF208E02280FD084F870
:10303000328000BFD4E9011088472C46ED68A01B00
:103040000C3D001DE6D1BDE8F04100F097B8D4E991
:103050000A01C4E906012046FFF76EFFEAE7BDE872
:10306000F08100004800002018000020FDF7DBB8C8
:10307000FDF7D6B8FDF7D0B810B5FFF7E5FAFFF7C2
:103080005DFD4FF480710748FFF73EFC002807D133
:10309000FFF744FB002803D1BDE81040FFF74ABF0B
:1030A00010BD0000F008002005480078012805D177
:1030B00004490878FA2801D2401C087070470000C3
:1030C0001200002010000020114810B500780128DF
:1030D0001CD1FFF7CFFF04460E48017889B1491E85
:1030E00011F0FF0101700CD10B48007848B9FFF7CF
:1030F0001BFD0A4908600A490968884201D0FFF7A8
:10310000B9FA2046BDE81040FFF7B2BF10BD00007D
:1031100012000020100000201100002024000020D8
:103120002000002002480078012800D000207047CD
:10313000120000200E4810B50078B0B90D48007894
:10314000012802D04FF4FA7010BD0B4C2078FA28F9
:1031500002D34FF4167010BDFFF78CFF2178491C85
:103160002170FFF785FF002010BD4FF4C87010BD1F
:103170001000002012000020110000200F4810B5A0
:103180000078B8B90E480078012802D04FF4FA70E0
:1031900010BD0C4C207850B1FFF76CFF2178491E10
:1031A0002170FFF765FFFFF7F9FA002010BD40F22C
:1031B000A56010BD4FF4C87010BD000010000020C5
:1031C000120000201100002010B5094C20780128C1
:1031D0000BD0FFF7A9FC07490860074908600120E8
:1031E0002070FFF749FA002010BD40F2F51010BD25
:1031F00012000020240000202000002001688142ED
:1032000001D10120704700207047000070B51E4DAD
:1032100004460E462868032806D02046FFF780FBA8
:1032200028B140F2233070BD40F2223070BD06F06C
:103230000300311A0839A00702D04FF4487070BD5E
:10324000124AA1F10C00904202D340F2213070BD2D
:103250002078261F00F00300084320F0020040F011
:10326000010130462160FFF7B7F93046FFF7DCF97E
:10327000017902214160286805EB800044602868DC
:10328000401C2860002070BDF0090020F5FFFF3FC2
:103290002DE9F84F9A46DDE90C76DDE90A981546E6
:1032A0008B460446FFF760FAE8BBECB3E5B3B8F130
:1032B000000F4AD0442F4BD3B9F1090F01D04AD89F
:1032C00003E02046FFF746FA78B32046FFF74EFDAD
:1032D000224904F12C0043460A685060C0E90021ED
:1032E00008601F4A514628460097FFF7D1F9206031
:1032F000C4E9065A84F82190C4E909871022594686
:10330000601DFDF738F86666C6B1A666FFF7B2FE27
:103310000546002084F820002046FFF7E3FB2846FE
:10332000FFF7A6FE02E00DE00FE014E0FFF7FAFE63
:1033300008B1FFF733FA0020BDE8F88F09480068AC
:10334000A066E3E74FF4C870F6E740F24C40F3E7BD
:1033500040F27470F0E740F26F70EDE73400002047
:10336000672D00084400002070B505460C46FFF7A5
:10337000FBF9F8B9FFF700FA10B140F2A46070BD94
:1033800055EA040019D0E84370EA040018D0FFF7AA
:1033900071FE23460B4C06462A462068FFF7FAFCCE
:1033A0002068FFF71DFC3046FFF762FEFFF7F6F9D5
:1033B000002070BD4FF4C87070BD00F07FF8F7E7D3
:1033C000652070BD2000002010B50446FFF7CCF941
:1033D00078B98CB12046FFF7D7F928B1FFF7CCF9BF
:1033E00010B140F2A46010BD2046BDE81040FFF7C8
:1033F00079BC4FF4C87010BD01480468EAE70000CA
:10340000200000202DE9F0410D460446FFF7ACF9FD
:1034100078BB7CB3092D4DD2FFF72CFE804694F883
:103420002100A84238D0276D04F15000874211D006
:103430000A2606E03846FFF7B0FAB04200D2064648
:103440007F69143F381B3C28F4D1B54202D984F877
:103450005850354694F82000810705D584F821504E
:103460002046FFF7C3FA17E0C10704D084F82150C3
:1034700012E019E01BE078B92046FFF7B1FB84F8B1
:1034800021502046FFF780F90028204602D0FFF7A0
:1034900013FB01E0FFF726FB4046FFF7E9FDFFF7CE
:1034A0007DF90020BDE8F0814FF4C870FAE740F2E2
:1034B0004C40F7E740F26F70F4E7000070B5FFF79B
:1034C00053F9002810D1FFF7D5FD084C05462068B8
:1034D000FFF786FB2068FFF705FB2846FFF7C8FDCE
:1034E000BDE87040FFF75AB970BD00002000002011
:1034F00010B5FFF717FE00280DD001200021FFF7BF
:10350000DBFCFFF773FD0448006890F82100BDE87C
:103510001040FFF795BB10BD200000200000000008
:103520000000000001020304060708090000000073
:1035300001020304F0060020000200005C350008D0
:10354000000000205C000000F8220008B8350008E8
:103550005C0000201C1A0000082300081000000076
:1035600001000000000000000024F4000000000042
:10357000000000000000000000000000000000004B
:1035800000000000E8030000000000000000000050
:1035900034000020340000203C0000203C000020CB
:1035A00064000000FFFFFFFFFFFFFFFF500000204F
:0835B0005000002000000000A3
:04000005080001D915
:00000001FF
